S01E0000537465707065725F426F6172645F4272696E675F55702E7372656367
S11300000C9434000C9451000C9451000C94510045
S11300100C9451000C9451000C9451000C94510018
S11300200C9451000C9451000C9451000C94530006
S11300300C9451000C9451000C9451000C945100F8
S11300400C9451000C9451000C9451000C945100E8
S11300500C9451000C9451000C9451000C945100D8
S11300600C9451000C94510011241FBECFEFD8E022
S1130070DEBFCDBF11E0A0E0B1E0ECE4F1E002C0EE
S113008005900D92A030B107D9F721E0A0E0B1E0CE
S113009001C01D92A230B207E1F70E949B000C94AC
S11300A0A4000C9400001F920F920FB60F9211241B
S11300B08F939F93809100019091010101969093F9
S11300C001018093000187B58A3138F095B181E050
S11300D0892785B987B5855087BD9F918F910F90EA
S11300E00FBE0F901F90189581E484BD8DE085BDEF
S11300F08FEF87BD16BC089588E08093800085E06B
S11301008093810080E09DE790938900809388002C
S1130110109285001092840082E080936F0008950D
S113012083E284B981E285B980E48AB90E947C00C3
S11301300E9474000895F894109201011092000135
S10F01400E9490007894FFCFF894FFCF49
S9030000FC
