:100000000C9434000C943E000C943E000C943E0082
:100010000C943E000C943E000C943E000C943E0068
:100020000C943E000C943E000C943E000C943E0058
:100030000C943E000C943E000C943E000C943E0048
:100040000C943E000C943E000C943E000C943E0038
:100050000C943E000C943E000C943E000C943E0028
:100060000C943E000C943E0011241FBECFEFD8E04C
:10007000DEBFCDBF0E9454000C9476000C940000AB
:10008000269A539A2E9A5B981092B400E1E8F0E019
:10009000808180628083808183608083E1EBF0E0F7
:1000A00080818660808308950E944000E4EBF0E048
:1000B00080E08083AFE3BCE91197F1F700C0000056
:1000C0008F5F8F3FB1F78083AFE3BCE91197F1F702
:1000D00000C000008150B9F7BFEF27EA81E6B150B8
:1000E00020408040E1F700C00000E2CFF894FFCF4D
:00000001FF
